:100000008316ED28000000000B1D0A289400030E43
:1000100095009F288C00030E8D00AF288207FF34C7
:10002000D22AFF34BB2A1334A52A0434F62AFF341B
:10003000DE2AC72ABF2AAC2A2C340934FF34FF3405
:1000400082296F29FF3479292F341F34FF34FF347C
:10005000FF3417343E343F342E349E292734FF3486
:10006000123416343A342A3418341A342734FF340C
:100070002134103438342D3428341D343B34FF34CB
:100080002334153439343D342B34A529FF34FF345F
:10009000FF34253401340B34AC29B329FF34FF3449
:1000A000BA2905340D34083432343034FF34FF3487
:1000B000C1292634003402340A340E34FF34FF34AC
:1000C000FF34D629FF34E229C829FF34FF343C34F9
:1000D0006F290C34E929FF34CF29FF34FF34FF3472
:1000E000FF34FF34FF34FF34FF343434FF34FF3443
:1000F000192AFF34512A6A2AFF34FF34FF340A2AAE
:10010000F729312A592A622A822A1C348C29EA2AA0
:100110000634392A0E34F0298A2A9A29FF343234D7
:1001200020341E34C32A062B35341C34FF34FF34EC
:1001300006341A340E3407343034FF34FF3483125B
:10014000A11BA828031085190314960C970CA10372
:1001500081030B11150E8300940E140E09008312F7
:1001600086160616900A9B1B861BB9289001931FC2
:1001700093030E081006031986120F30901AF03000
:10018000101ACC39101E33399019AA39901D5539DF
:100190000F05031D061206089B000B100D0E8300B1
:1001A0008C0E0C0E090082007C3425343C343F3424
:1001B0003D342A347C343F3405340D3421343C340E
:1001C00010343C341F3422341F3421343534263467
:1001D0001E3432341F341E34FF34FC308500C030EE
:1001E0008600FF3081000815831264007F3099007B
:1001F0008600FB309800850008308B009001FF30AE
:100200008E0000308F008B172323A401A501AB01C2
:10021000A6010030261B4038A6001223E03A03193D
:1002200047292308E13A031949292308F03A031919
:100230004B299030230203180D2923080E20840037
:10024000FF3A03190929A6190929040826192F2993
:100250003F398400241B0417A41B84170408931F30
:100260002F29261843298400AB1B4D218F128F1391
:10027000841B8F17041B8F1604083F393F3A8E00EA
:10028000033093000929FF308E008F010929A6143D
:100290000D2926170D2926140D292B080F390319AE
:1002A00008002B083F39890004085E21AB0A0800CA
:1002B00089008316081483120808080088008B132D
:1002C000831655308900AA30890088148B17881846
:1002D000672983125929A615003426150800A61887
:1002E0006B292413261C241726188F12241B8F1603
:1002F0006B29A413261CA41726188F13A41B8F1771
:1003000087216B29A412261CA41687216B29241689
:10031000A41BA41E24120800261B9629A513261C24
:10032000A517A51F6B290830A5066B2926182613CB
:1003300024306D29A618022B9F306D291E30A41B76
:100340001E34241F241B75306D291B30A41B1B3445
:10035000241F241B47306D293330A41B3334241F42
:10036000241B5B306D293530A41B3534241F241B1E
:1003700007306D292030A41B2034241F241B363065
:100380006D292230A41B2234241F241B37306D29F1
:100390000F30A41B0F34241F241B06306D29463058
:1003A000A41B0634241F241B4F306D29A41FDD29F4
:1003B000F330241F241BDE306D297330241F241BCF
:1003C0005E306D296030A41B2034241F241B823032
:1003D0006D296230A41B2234241F241BB6306D29E2
:1003E000A618F32907346430241FA4306D29B430D3
:1003F000A618012A241AC72AA5192230241B223044
:100400006D29241AC72AB430A41B3434241F241B9A
:1004100074306D297730A618122AA5193230241BA2
:1004200032306D29B730A41B0434241F241B7730CD
:100430006D29A6182A2A1F30A5196D29A41F252A5F
:10044000D430241F241B71306D295430241F241BE9
:100450001F306D295430A41B1434241F241BC430B6
:100460006D298F30A618A22AA5191E30241B1E3014
:100470006D29A6184A2A1A30A5196D29A41F452AE4
:100480009A30241F241BDA306D294430241F241B8A
:100490001A306D294430A41B0434241F241B9A30C5
:1004A0006D298630A618A22AA5191830241B1830E9
:1004B0006D291D30A618612AA5196D29241F6B29E5
:1004C0006D2931348730A618A22AA5191B30241BA8
:1004D0001B306D29A6187B2A3330A5196D29A41F5E
:1004E000762AB330241F241BF1306D295330241F8A
:1004F000241B33306D295330A41B1334241F241BB9
:1005000076306D298E30A618A22AA5193530241B05
:1005100035306D29A6189B2A3030A5196D29A41FE6
:10052000962AB030241F241BF0306D294330241F3D
:10053000241B30306D294330A41B0334241F241B9B
:1005400003306D29A41B7F396D29A41E0334261C9A
:100550006B29D4302B236B29A41E1434261C6B2941
:100560002B080F390319B92A2B083F398900FF30AE
:100570005E21AB016B290614261C06106B2986141C
:10058000261C86106B290615261C06116B29261CB5
:10059000CB2A86156B2986111810A41F1814180869
:1005A00085006B29A41E2934261C6B29A41BDB2A79
:1005B000013053236B298130AB006B29A41E113409
:1005C000261C6B29A41BE72A113053236B29913079
:1005D000AB006B29A41E2734261C6B29A41BF32A0D
:1005E000213053236B29A130AB006B29A41E022BB1
:1005F000261C6B29A41BFF2A313053236B29B130F1
:10060000AB006B298F10261C8F146B29E4306D29E9
:10061000831605128312051208008316051683122D
:100620000516232B2030AA006400A11B1E2BA90B4A
:10063000152BAA0B152B85108514122B970D960DD3
:10064000970D160DA3000A30A100FF3081000B1199
:100650008B1623080800890008230908D32084008A
:10066000FF3A03193A2B0408FE3A0319412B44239D
:10067000890A2D2BFF308E008F144E238F100D23EF
:10068000080048304F23382B8F128F13841B8F178D
:10069000041B8F1604083F393F3A8E000330930045
:1006A000931F502B0800A900FF30AA000823290837
:1006B00058218400FF3A03196D2B04082A06031DF4
:1006C000652BFF308E000D304F230408AA00442311
:1006D000A90A29080F39031D572BFF308E008F01FF
:1006E0000D230800FF3FFF3FFF3FFF3FFF3FFF3F5E
:1006F000FF3FFF3FFF3FFF3FFF3FFF3FFF3FFF3F0A
:02400E00FE3F73
:00000001FF
